:100000000C9456000C9473000C9473000C947300C1
:100010000C9473000C9473000C9473000C94730094
:100020000C9473000C9473000C9473000C94730084
:100030000C9473000C9473000C9473000C94730074
:100040000C9473000C9473000C9473000C94730064
:100050000C9473000C9473000C9473000C94730054
:100060000C9473000C9473000C9473000C94730044
:100070000C9473000C9473000C9473000C94730034
:100080000C9473000C9473000C9473000C94730024
:100090000C9473000C9473000C9473000C94730014
:1000A0000C9473000C9473000C94730011241FBE05
:1000B000CFEFDAE0DEBFCDBF11E0A0E0B1E0E2E8D3
:1000C000F5E002C005900D92AA30B107D9F711E012
:1000D000AAE0B1E001C01D92A131B107E1F70E9491
:1000E0009C020C94BF020C9400008AB1806E8AB905
:1000F00026E030E065E071E06F5F572F062E01C00B
:10010000550F0A94EAF78AEF90E04BB1452B4BB9B3
:10011000E3EFF1E03197F1F700C000001BB8019761
:10012000009799F7673009F464E0215031092115EF
:10013000310511F70895289A08952C9A0895809111
:10014000100108952F98682F70E027E030E080E0DC
:1001500009C02D982F9A880F1E9981602F982150E1
:10016000310958F0AB01022E02C0559547950A940B
:10017000E2F740FFEECF2D9AEDCF0895CF93DF93B6
:100180001F92CDB7DEB72C9880E60E94A20080E0D7
:100190000E94A20089830E949D0089810F90DF91B7
:1001A000CF910895CF93DF931F92CDB7DEB72C98F0
:1001B0008FEF0E94A20089830E949D0089810F9089
:1001C000DF91CF9108950E94D200982F907381E023
:1001D00009F080E008950E94D20085FD06C084FDEC
:1001E00002C08FEF089581E0089580E00895EF92B6
:1001F000FF920F931F93CF93DF93E42E442361F07C
:100200008C01EB01F12CF80181918F010E94A20079
:100210008993F394FE10F7CFDF91CF911F910F9147
:10022000FF90EF9008950F931F93CF93DF93062FC6
:10023000662341F0EC0110E089910E94A2001F5F4B
:100240001013FACFDF91CF911F910F910895CF93A3
:10025000DF931F92CDB7DEB72C988F7180626983D0
:100260000E94A2006981862F0E94A2000F90DF9158
:10027000CF910C949D00CF93DF93EC012C9881E6F5
:100280000E94A20040911001BE01CE010E94F70021
:100290000E949D0060E487E0DF91CF910C942701DC
:1002A0002C9882EE0E94A2000E949D0060E787E0E9
:1002B0000E94270128986BE080E00E9427010C949F
:1002C0009B0060931001682F85E00E94270160E089
:1002D00081E10E9427016091100182E10E942701C3
:1002E00060E083E10E94270160E084E10E94270131
:1002F00060E085E10E94270160E086E10E9427011D
:1003000066E086E00E94270168E080E00E94270105
:1003100063E081E00E94270163E082E00E94270100
:100320006FE484E00E94270160E08CE10E942701D5
:100330000C94500160E787E00E9427016AE080E0AA
:100340000C942701CF92DF92FF920F931F93CF93CC
:10035000DF931F92CDB7DEB7F82E289899830E94BD
:100360009A012C9881EE0E94A2000E949D002C9878
:1003700080EA0E94A200109110019981112361F07E
:100380000F2DCF2CD92EF60181916F010E94A20072
:100390008C2D801B8117B8F30E949D000F90DF9178
:1003A000CF911F910F91FF90DF90CF900C949B0005
:1003B000289868E080E00C9427010F931F93CF9357
:1003C000DF931F92CDB7DEB78B012C988F714983D5
:1003D0000E94A2004981B801C8010E94F7000F9055
:1003E000DF91CF911F910F910C949D00CF93DF93DC
:1003F0001F92CDB7DEB741E0BE016F5F7F4F87E14F
:100400000E94DD01898181700F90DF91CF91089565
:10041000CF93DF931F92CDB7DEB70E94D20086FF45
:1004200005C081E00F90DF91CF91089541E0BE01BA
:100430006F5F7F4F87E10E94DD0189818095817028
:100440000F90DF91CF910895CF93DF931F92CDB797
:10045000DEB741E0BE016F5F7F4F88E00E94DD01A3
:1004600089818F700F90DF91CF910895EF92FF9265
:100470000F931F93CF93DF9300D0CDB7DEB7042F38
:100480002C988F71806269837A830E94A2006981AF
:100490007A81002351F07B0110E0F70181917F0107
:1004A0000E94A2001F5F1013F8CF0F900F90DF91F2
:1004B000CF911F910F91FF90EF900C949D00289881
:1004C00045E0BC018BE00E9436020C949B00CF9368
:1004D000DF93EC0145E0BC018AE00E94360245E072
:1004E000BE0180E1DF91CF910C943602209A249ACC
:1004F000279A259A269808950E94760228980C94A7
:100500009D00811102C0289808950C949B008111D0
:1005100002C02C9808950C949D00811102C02F9860
:1005200008952F9A0895811102C02D9808952D9A4B
:10053000089583B18074089580E88093610081E01C
:10054000809361000E947C0264E085E10E94610169
:1005500085E091E00E94670280E091E00E945F02E6
:100560000E9408028823E1F38CE091E00E943B01A5
:1005700080910E018535A1F70E947500F1CFF894A6
:02058000FFCFAB
:0A058200E7E7E7E7E7D7D7D7D7D7B9
:00000001FF
