:100000000C9456000C9473000C9473000C947300C1
:100010000C9473000C9473000C9473000C94730094
:100020000C9473000C9473000C9473000C94730084
:100030000C9473000C9473000C9473000C94730074
:100040000C9473000C9473000C9473000C94730064
:100050000C9473000C9473000C9473000C94730054
:100060000C9473000C9473000C9473000C94730044
:100070000C9473000C9473000C9473000C94730034
:100080000C9473000C9473000C9473000C94730024
:100090000C9473000C9473000C9473000C94730014
:1000A0000C9473000C9473000C94730011241FBE05
:1000B000CFEFDAE0DEBFCDBF11E0A0E0B1E0EAE9CA
:1000C000F7E002C005900D92AC33B107D9F711E00B
:1000D000ACE3B1E001C01D92AD34B107E1F70E947D
:1000E0006A030C94CB030C940000CF93DF939EE73C
:1000F00090933E019FEF90933F0196E090934001D3
:100100008093410110924201109243016093440197
:100110008FEE80934501CFE3D1E08EE701C0899156
:100120000E94380381E0C634D807C9F781E0809384
:100130000A01DF91CF910895EAE7F0E080818068BD
:100140008083ECE7F0E0808180668083EBE7F0E07D
:1001500080818062808308958AB1806E8AB9879A8F
:1001600008959BB121E030E001C0220F8A95EAF7A3
:10017000922B9BB984E6E3EFF1E03197F1F700C0F1
:1001800000008150C1F78BB1209528232BB9089529
:1001900025E030E061E0562F022E01C0550F0A9491
:1001A000EAF78AEF90E04BB1452B4BB9E3EFF1E072
:1001B0003197F1F700C000001BB80197009799F73D
:1001C0002F5F3F4F2830310531F708958F34F1F01C
:1001D00090913D019817C9F09BB121E030E0082EC5
:1001E00001C0220F0A94EAF7922B9BB994E6E3EF41
:1001F000F1E03197F1F700C000009150C1F79BB1D9
:10020000209529232BB980933D01089520913D012C
:10021000222311F33BB181E090E001C0880F2A95C1
:10022000EAF7382B3BB924E6E3EFF1E03197F1F739
:1002300000C000002150C1F79BB1809589238BB984
:1002400010923D01089561110C9475000895289A4B
:1002500008952C9A089580914C0108952F98682F45
:1002600070E027E030E080E009C02D982F9A880FD9
:100270001E9981602F982150310958F0AB01022E50
:1002800002C0559547950A94E2F740FFEECF2D9AAC
:10029000EDCF0895CF93DF931F92CDB7DEB72C98A3
:1002A00080E60E942E0180E00E942E0189830E9438
:1002B000290189810F90DF91CF910895CF93DF932A
:1002C0001F92CDB7DEB72C988FEF0E942E01898345
:1002D0000E94290189810F90DF91CF9108950E949A
:1002E0005E01982F907381E009F080E008950E94EC
:1002F0005E0185FD06C084FD02C08FEF089581E098
:10030000089580E00895EF92FF920F931F93CF938B
:10031000DF93E42E442361F08C01EB01F12CF80112
:1003200081918F010E942E018993F394FE10F7CFE3
:10033000DF91CF911F910F91FF90EF9008950F9350
:100340001F93CF93DF93062F662341F0EC0110E05B
:1003500089910E942E011F5F1013FACFDF91CF9178
:100360001F910F910895CF93DF931F92CDB7DEB702
:100370002C988F71806269830E942E016981862F7B
:100380000E942E010F90DF91CF910C942901CF9301
:10039000DF93EC012C9881E60E942E0140914C01E4
:1003A000BE01CE010E9483010E94290160E487E022
:1003B000DF91CF910C94B3012C9882EE0E942E0114
:1003C0000E94290160E787E00E94B30128986BE052
:1003D00080E00E94B3010C94270160934C01682FC8
:1003E00085E00E94B30160E081E10E94B301609169
:1003F0004C0182E10E94B30160E083E10E94B301FD
:1004000060E084E10E94B30160E085E10E94B301F5
:1004100060E086E10E94B30166E086E00E94B301DD
:1004200068E080E00E94B30163E081E00E94B301D4
:1004300063E082E00E94B3016FE484E00E94B301B4
:1004400060E08CE10E94B3010C94DC0160E787E07E
:100450000E94B3016AE080E00C94B301CF92DF9276
:10046000FF920F931F93CF93DF931F92CDB7DEB709
:10047000F82E289899830E9426022C9881EE0E94DB
:100480002E010E9429012C9880EA0E942E011091D1
:100490004C019981112361F00F2DCF2CD92EF6013B
:1004A00081916F010E942E018C2D801B8117B8F362
:1004B0000E9429010F90DF91CF911F910F91FF9022
:1004C000DF90CF900C942701289868E080E00C948E
:1004D000B3010F931F93CF93DF931F92CDB7DEB776
:1004E0008B012C988F7149830E942E014981B8019C
:1004F000C8010E9483010F90DF91CF911F910F914E
:100500000C942901CF93DF931F92CDB7DEB741E062
:10051000BE016F5F7F4F87E10E9469028981817010
:100520000F90DF91CF910895CF93DF931F92CDB7B6
:10053000DEB70E945E0186FF05C081E00F90DF916B
:10054000CF91089541E0BE016F5F7F4F87E10E9428
:1005500069028981809581700F90DF91CF91089514
:10056000CF93DF931F92CDB7DEB741E0BE016F5F3F
:100570007F4F88E00E94690289818F700F90DF9120
:10058000CF910895EF92FF920F931F93CF93DF9334
:1005900000D0CDB7DEB7042F2C988F7180626983AD
:1005A0007A830E942E0169817A81002351F07B01B8
:1005B00010E0F70181917F010E942E011F5F10134F
:1005C000F8CF0F900F90DF91CF911F910F91FF9077
:1005D000EF900C942901289845E0BC018BE00E9423
:1005E000C2020C942701CF93DF93EC0145E0BC01DC
:1005F0008AE00E94C20245E0BE0180E1DF91CF9116
:100600000C94C202209A249A279A259A2698089533
:100610000E94020328980C942901811102C0289895
:1006200008950C942701811102C02C9808950C9410
:100630002901811102C02F9808952F9A08958111E0
:1006400002C02D9808952D9A089583B1807408955D
:1006500088E48AB91092CD0083E38093CC00109295
:10066000C80088E18093C90086E08093CA0008959D
:100670009091C80095FFFCCF8093CE000895FC01B7
:100680002081222351F031968091C80085FFFCCF54
:100690002093CE0021912111F7CF08958091C800B9
:1006A00087FFFCCF8091CE00089530E02091C800F4
:1006B00027FFFCCF2091CE00FC01E30FF11D20832A
:1006C0003F5F2A3011F02D3089F7FC01E30FF11D57
:1006D0001082089580E88093610081E0809361003A
:1006E0008AB1806E8AB9879A0E94080364E085E126
:1006F0000E94ED0185E091E00E94F30280E091E02C
:100700000E94EB020E9428036EE186E00E947500C1
:10071000C8EA04C00E949402811113C080910A01AA
:100720008130C1F780913C018F5F80933C0183331E
:1007300088F310920A0110923C010E9494028823CF
:1007400069F387E491E00E94C701809147018F3FE0
:10075000B1F080914A01882309F380917A00806486
:1007600080937A0080917A0084FFFCCF8091790099
:100770009C2F981B90934B0190934A01CFCF80916F
:1007800048010E94E60060914901662311F383E06D
:0A0790000E947500DECFF894FFCF41
:10079A00E7E7E7E7E7D7D7D7D7D701B80B000000D5
:1007AA0000A00F580200000000B80B000000000073
:1007BA0000B80BE8030000B80BD007C8002C01D022
:0C07CA00076400000000000000000000B8
:00000001FF
