S0140000737765775F726563656976652E7372656308
S11300000C9456000C9473000C9473000C947300BD
S11300100C9473000C9473000C9473000C94730090
S11300200C9473000C9473000C9473000C94730080
S11300300C9473000C9473000C9473000C94730070
S11300400C9473000C9473000C9473000C94730060
S11300500C9473000C9473000C9473000C94730050
S11300600C9473000C9473000C9473000C94730040
S11300700C9473000C9473000C9473000C94730030
S11300800C9473000C9473000C9473000C94730020
S11300900C9473000C9473000C9473000C94730010
S11300A00C9473000C9473000C94730011241FBE01
S11300B0CFEFDAE0DEBFCDBF11E0A0E0B1E0E6E8CB
S11300C0F7E002C005900D92AC33B107D9F711E007
S11300D0ACE3B1E001C01D92AE34B107E1F70E9478
S11300E045030C94C1030C940000CF93DF939EE767
S11300F090933F019FEF9093400196E090934101CC
S1130100809342011092430110924401609345018F
S11301108FEE80934601C0E4D1E08EE701C089915F
S11301200E94130381E0C734D807C9F781E08093A4
S11301300A01DF91CF910895EAE7F0E080818068B9
S11301408083ECE7F0E0808180668083EBE7F0E079
S113015080818062808308958AB1806E8AB9879A8B
S1130160089525E030E061E0562F022E01C0550FBE
S11301700A94EAF78AEF90E04BB1452B4BB9E3EFD1
S1130180F1E03197F1F700C000001BB80197009728
S113019099F72F5F3F4F2830310531F708958111CA
S11301A005C020913D0121111CC0089540913D01DD
S11301B04817D9F39BB121E030E0B90102C0660FC2
S11301C0771F4A95E2F7962B9BB99BB1082E01C085
S11301D0220F0A94EAF7209529232BB980933D0135
S11301E008953BB181E090E0022E01C0880F0A948B
S11301F0EAF7382B3BB910923D01089561110C9434
S113020075000895289A0895299A089580914D01BA
S113021008952A98682F70E027E030E080E009C054
S11302202B982A9A880F1C9981602A9821503109A9
S113023058F0AB01022E02C0559547950A94E2F797
S113024040FFEECF2B9AEDCF0895CF93DF931F920B
S1130250CDB7DEB7299880E60E94090180E00E94AC
S1130260090189830E94040189810F90DF91CF9154
S11302700895CF93DF931F92CDB7DEB729988FEF00
S11302800E94090189830E94040189810F90DF91F2
S1130290CF9108950E943901982F907381E009F05D
S11302A080E008950E94390185FD06C084FD02C0E6
S11302B08FEF089581E0089580E00895EF92FF9212
S11302C00F931F93CF93DF93E42E442361F08C01AB
S11302D0EB01F12CF80181918F010E9409018993AE
S11302E0F394FE10F7CFDF91CF911F910F91FF9000
S11302F0EF9008950F931F93CF93DF93062F6623F8
S113030041F0EC0110E089910E9409011F5F101374
S1130310FACFDF91CF911F910F910895CF93DF937F
S11303201F92CDB7DEB729988F71806269830E94CE
S113033009016981862F0E9409010F90DF91CF91F5
S11303400C940401CF93DF93EC01299881E60E9479
S1130350090140914D01BE01CE010E945E010E943F
S1130360040160E487E0DF91CF910C948E01299819
S113037082EE0E9409010E94040160E787E00E9466
S11303808E0128986BE080E00E948E010C9402019B
S113039060934D01682F85E00E948E0160E081E149
S11303A00E948E0160914D0182E10E948E0160E005
S11303B083E10E948E0160E084E10E948E0160E08E
S11303C085E10E948E0160E086E10E948E0166E074
S11303D086E00E948E0168E080E00E948E0163E066
S11303E081E00E948E0163E082E00E948E016FE44E
S11303F084E00E948E0160E08CE10E948E010C94E6
S1130400B70160E787E00E948E016AE080E00C9407
S11304108E01CF92DF92FF920F931F93CF93DF93BE
S11304201F92CDB7DEB7F82E289899830E94010257
S1130430299881EE0E9409010E940401299880EA0A
S11304400E94090110914D019981112361F00F2D32
S1130450CF2CD92EF60181916F010E9409018C2DB8
S1130460801B8117B8F30E9404010F90DF91CF9194
S11304701F910F91FF90DF90CF900C940201289868
S113048068E080E00C948E010F931F93CF93DF9369
S11304901F92CDB7DEB78B0129988F7149830E94D3
S11304A009014981B801C8010E945E010F90DF91E2
S11304B0CF911F910F910C940401CF93DF931F925E
S11304C0CDB7DEB741E0BE016F5F7F4F87E10E9489
S11304D04402898181700F90DF91CF910895CF9369
S11304E0DF931F92CDB7DEB70E94390186FF05C0A6
S11304F081E00F90DF91CF91089541E0BE016F5FDD
S11305007F4F87E10E9444028981809581700F901A
S1130510DF91CF910895CF93DF931F92CDB7DEB7CC
S113052041E0BE016F5F7F4F88E00E9444028981F1
S11305308F700F90DF91CF910895EF92FF920F93F8
S11305401F93CF93DF9300D0CDB7DEB7042F299844
S11305508F71806269837A830E94090169817A813B
S1130560002351F07B0110E0F70181917F010E948B
S113057009011F5F1013F8CF0F900F90DF91CF91F7
S11305801F910F91FF90EF900C940401289845E07F
S1130590BC018BE00E949D020C940201CF93DF9377
S11305A0EC0145E0BC018AE00E949D0245E0BE01E9
S11305B080E1DF91CF910C949D02209A219A229A96
S11305C0239A249808950E94DD0228980C9404012B
S11305D0811102C0289808950C940201811102C06F
S11305E0299808950C940401811102C02A98089551
S11305F02A9A0895811102C02B9808952B9A089580
S113060083B18071089588E48AB91092CD0083E3A0
S11306108093CC001092C80088E18093C90086E0E2
S11306208093CA0008959091C80095FFFCCF8093F1
S1130630CE000895FC012081222351F0319680914F
S1130640C80085FFFCCF2093CE0021912111F7CF64
S113065008958091C80087FFFCCF8091CE00089553
S113066030E02091C80027FFFCCF2091CE00FC0190
S1130670E30FF11D20833F5F2A3011F02D3089F7FD
S1130680FC01E30FF11D1082089580E8809361005E
S113069081E0809361008AB1806E8AB9879A8091E3
S11306A07A00806880937A0080917C0080668093D1
S11306B07C0080917B00806280937B000E94030316
S11306C06EE186E00E9475008BB18BB90E94E30253
S11306D064E085E10E94C80185E091E00E94CE02B9
S11306E080E091E00E94C6020E946F02811109C05D
S11306F080913E018F5F80933E010E946F028823A8
S1130700B9F30E946F02811114C088E491E00E9441
S113071009020E944A018111FCCF0E94B7012FE90E
S113072086E891E0215080409040E1F700C000004D
S1130730DBCF88E491E00E94A201809148018F3FC1
S1130740A1F080914B01882301F380917A008064A9
S113075080937A0080917A0084FFFCCF80917900A5
S113076080934C0180934B01D0CF809149010E942A
S1130770CF0060914A01662321F383E00E94750053
S1090780E0CFF894FFCF66
S1130786E7E7E7E7E7D7D7D7D7D701B80B000000E5
S113079600A00F580200000000B80B000000000083
S11307A600B80BE8030000B80BD007C8002C01D032
S10F07B6076400000000000000000000C8
S9030000FC
