:100000000C9456000C9473000C9473000C947300C1
:100010000C9473000C9473000C9473000C94730094
:100020000C9473000C9473000C9473000C94730084
:100030000C9473000C9473000C9473000C94730074
:100040000C9473000C9473000C9473000C94730064
:100050000C9473000C9473000C9473000C94730054
:100060000C9473000C9473000C9473000C94730044
:100070000C9473000C9473000C9473000C94730034
:100080000C9473000C9473000C9473000C94730024
:100090000C9473000C9473000C9473000C94730014
:1000A0000C9473000C9473000C94730011241FBE05
:1000B000CFEFDAE0DEBFCDBF11E0A0E0B1E0E8EDC8
:1000C000F7E002C005900D92AC33B107D9F711E00B
:1000D000ACE3B1E001C01D92AD34B107E1F70E947D
:1000E0006F030C94EA030C940000CF93DF939EE718
:1000F00090933E019FEF90933F0196E090934001D3
:100100008093410110924201109243016093440197
:100110008FEE80934501CFE3D1E08EE701C0899156
:100120000E943D0381E0C634D807C9F781E080937F
:100130000A01DF91CF910895EAE7F0E080818068BD
:100140008083ECE7F0E0808180668083EBE7F0E07D
:1001500080818062808308958AB1806E8AB9879A8F
:1001600008959BB121E030E001C0220F8A95EAF7A3
:10017000922B9BB984E6E3EFF1E03197F1F700C0F1
:1001800000008150C1F78BB1209528232BB9089529
:1001900026E030E065E071E06F5F572F062E01C06A
:1001A000550F0A94EAF78AEF90E04BB1452B4BB913
:1001B000E3EFF1E03197F1F700C000001BB80197C1
:1001C000009799F7673009F464E02150310921154F
:1001D000310511F708958F34F1F090913D01981792
:1001E000C9F09BB121E030E0082E01C0220F0A9433
:1001F000EAF7922B9BB994E6E3EFF1E03197F1F740
:1002000000C000009150C1F79BB1209529232BB964
:1002100080933D01089520913D01222311F33BB1CC
:1002200081E090E001C0880F2A95EAF7382B3BB9AE
:1002300024E6E3EFF1E03197F1F700C00000215030
:10024000C1F79BB1809589238BB910923D01089528
:1002500061110C9475000895289A08952C9A0895B8
:1002600080914C0108952F98682F70E027E030E0CE
:1002700080E009C02D982F9A880F1E9981602F98D1
:100280002150310958F0AB01022E02C05595479517
:100290000A94E2F740FFEECF2D9AEDCF0895CF9369
:1002A000DF931F92CDB7DEB72C9880E60E94330112
:1002B00080E00E94330189830E942E0189810F9082
:1002C000DF91CF910895CF93DF931F92CDB7DEB723
:1002D0002C988FEF0E94330189830E942E0189811F
:1002E0000F90DF91CF9108950E946301982F907332
:1002F00081E009F080E008950E94630185FD06C059
:1003000084FD02C08FEF089581E0089580E0089594
:10031000EF92FF920F931F93CF93DF93E42E44232A
:1003200061F08C01EB01F12CF80181918F010E94A9
:1003300033018993F394FE10F7CFDF91CF911F9192
:100340000F91FF90EF9008950F931F93CF93DF933A
:10035000062F662341F0EC0110E089910E943301E1
:100360001F5F1013FACFDF91CF911F910F91089566
:10037000CF93DF931F92CDB7DEB72C988F71806239
:1003800069830E9433016981862F0E9433010F9097
:10039000DF91CF910C942E01CF93DF93EC012C9839
:1003A00081E60E94330140914C01BE01CE010E94C2
:1003B00088010E942E0160E487E0DF91CF910C94C8
:1003C000B8012C9882EE0E9433010E942E0160E752
:1003D00087E00E94B80128986BE080E00E94B80195
:1003E0000C942C0160934C01682F85E00E94B801A9
:1003F00060E081E10E94B80160914C0182E10E94BD
:10040000B80160E083E10E94B80160E084E10E94ED
:10041000B80160E085E10E94B80160E086E10E94D9
:10042000B80166E086E00E94B80168E080E00E94C2
:10043000B80163E081E00E94B80163E082E00E94BD
:10044000B8016FE484E00E94B80160E08CE10E9492
:10045000B8010C94E10160E787E00E94B8016AE00E
:1004600080E00C94B801CF92DF92FF920F931F931C
:10047000CF93DF931F92CDB7DEB7F82E28989983DC
:100480000E942B022C9881EE0E9433010E942E01C3
:100490002C9880EA0E94330110914C01998111231C
:1004A00061F00F2DCF2CD92EF60181916F010E94A2
:1004B00033018C2D801B8117B8F30E942E010F9001
:1004C000DF91CF911F910F91FF90DF90CF900C940F
:1004D0002C01289868E080E00C94B8010F931F93DA
:1004E000CF93DF931F92CDB7DEB78B012C988F711E
:1004F00049830E9433014981B801C8010E948801E3
:100500000F90DF91CF911F910F910C942E01CF93FB
:10051000DF931F92CDB7DEB741E0BE016F5F7F4F23
:1005200087E10E946E02898181700F90DF91CF91E7
:100530000895CF93DF931F92CDB7DEB70E9463017A
:1005400086FF05C081E00F90DF91CF91089541E0D3
:10055000BE016F5F7F4F87E10E946E0289818095A7
:1005600081700F90DF91CF910895CF93DF931F9209
:10057000CDB7DEB741E0BE016F5F7F4F88E00E94DC
:100580006E0289818F700F90DF91CF910895EF9265
:10059000FF920F931F93CF93DF9300D0CDB7DEB7B9
:1005A000042F2C988F71806269837A830E943301B3
:1005B00069817A81002351F07B0110E0F70181917C
:1005C0007F010E9433011F5F1013F8CF0F900F902F
:1005D000DF91CF911F910F91FF90EF900C942E011E
:1005E000289845E0BC018BE00E94C7020C942C01C6
:1005F000CF93DF93EC0145E0BC018AE00E94C70283
:1006000045E0BE0180E1DF91CF910C94C702209AB2
:10061000249A279A259A269808950E9407032898D5
:100620000C942E01811102C0289808950C942C017D
:10063000811102C02C9808950C942E01811102C0E2
:100640002F9808952F9A0895811102C02D9808952A
:100650002D9A089583B18074089588E48AB9109220
:10066000CD0083E38093CC001092C80088E1809392
:10067000C90086E08093CA0008959091C80095FF54
:10068000FCCF8093CE000895FC012081222351F0FD
:1006900031968091C80085FFFCCF2093CE00219138
:1006A0002111F7CF08958091C80087FFFCCF80917A
:1006B000CE00089530E02091C80027FFFCCF2091A4
:1006C000CE00FC01E30FF11D20833F5F2A3011F0C3
:1006D0002D3089F7FC01E30FF11D1082089580E8A9
:1006E0008093610081E0809361000E940D0364E0CB
:1006F00085E10E94F20185E091E00E94F80280E02D
:1007000091E00E94F0028AB1806E8AB9879A0E94B5
:100710002D036EE186E00E947500C8EA80910A010F
:10072000813099F10E94990281113EC08091470168
:100730008F3F09F442C080914A01882389F080915B
:100740007A00806480937A0080917A0084FFFCCFE5
:10075000809179002C2F281B20934B0120934A0174
:1007600087E491E00E9433020E9474018111FCCF62
:100770008FE996E821E0815090402040E1F700C0E9
:10078000000080910A01813069F680913C018F5F01
:1007900080933C01853130F210920A0110923C01A5
:1007A0000E949902882311F287E491E00E94CC0113
:1007B000809147018F3F09F0BECF809148010E9490
:1007C000EB0060914901662309F4B5CF83E00E94F4
:0807D0007500B1CFF894FFCFD2
:1007D800E7E7E7E7E7D7D7D7D7D701B80B00000097
:1007E80000A00F580200000000B80B000000000035
:1007F80000B80BE8030000B80BD007C8002C01D0E4
:0C08080007640000000000000000000079
:00000001FF
