S0140000737765775F636F6E74726F6C2E73726563EA
S11300000C9456000C9473000C9473000C947300BD
S11300100C9473000C9473000C9473000C94730090
S11300200C9473000C9473000C9473000C94730080
S11300300C9473000C9473000C9473000C94730070
S11300400C9473000C9473000C9473000C94730060
S11300500C9473000C9473000C9473000C94730050
S11300600C9473000C9473000C9473000C94730040
S11300700C9473000C9473000C9473000C94730030
S11300800C9473000C9473000C9473000C94730020
S11300900C9473000C9473000C9473000C94730010
S11300A00C9473000C9473000C94730011241FBE01
S11300B0CFEFDAE0DEBFCDBF11E0A0E0B1E0E8E7CA
S11300C0F4E002C005900D92A233B107D9F711E014
S11300D0A2E3B1E001C01D92A433B107E1F70E948D
S11300E05A010C943A020C940000EAE7F0E0808193
S11300F080688083ECE7F0E0808180668083EBE7B2
S1130100F0E0808180628083089584B18FEF84B9A8
S11301108AB1806E8AB9879A0895EEE6F0E080810C
S11301208160808385B5836085BDE0E8F0E08081EF
S11301308A6A8083E1E8F0E080818961808387E8CE
S113014093E19093870080938600089590E0FC01EA
S1130150EE0FFF1FE80FF91FEE0FFF1FEF5FFE4FBB
S11301608481958190938900809388008281938112
S113017090938B0080938A008081918190938D006D
S113018080938C000895811105C0209132012111C2
S11301902AC00895409132014817D9F39AB121E059
S11301A030E0B90102C0660F771F4A95E2F7962B3B
S11301B09AB99BB1A9010090320102C0440F551FA6
S11301C00A94E2F7942B9BB99AB1082E01C0220F2E
S11301D00A94EAF7922B9AB99BB1209529232BB95B
S11301E08093320108954AB181E090E0BC0102C0DD
S11301F0660F771F2A95E2F7462B4AB92BB1009078
S1130200320102C0880F991F0A94E2F7282B2BB9F8
S113021010923201089525B1615081E090E0062EDC
S113022001C0880F0A94EAF78095822385B908955E
S113023088E48AB91092CD0083E38093CC001092B5
S1130240C80088E18093C90086E08093CA000895BD
S11302509091C80095FFFCCF8093CE000895FC01D7
S11302602081222351F031968091C80085FFFCCF74
S11302702093CE0021912111F7CF08958091C800D9
S113028087FFFCCF8091CE00089530E02091C80014
S113029027FFFCCF2091CE00FC01E30FF11D20834A
S11302A03F5F2A3011F02D3089F7FC01E30FF11D77
S11302B01082089580E88093610081E0809361005A
S11302C084B18FEF84B98AB1806E8AB9879A8BB171
S11302D0806E8BB980917A00806880937A008091D7
S11302E07C00806680937C0080917B008062809398
S11302F07B000E94180185B185B90E948D00C1E080
S1130300D0E00E943E01182F0E943E01082F853044
S113031009F44EC0863009F47BC0873009F491C0DB
S113032020912F013091300130938900209388006F
S113033020912D0130912E0130938B0020938A005F
S113034020912B0130912C0130938D0020938C004F
S11303500E943E01E82E0E943E01F82E1F3F09F440
S113036048C0FF2069F080917A00806480937A000D
S113037080917A0084FFFCCFF0907900F0923301F1
S11303808FE40E9428018F2D0E9428012FE986E81E
S113039091E0215080409040E1F700C000000E94AD
S11303A03E01182F0E943E01082F853009F0B2CF7C
S11303B0209117013091180130938900209388000F
S11303C0209115013091160130938B0020938A00FF
S11303D0209113013091140130938D0020938C00EF
S11303E00E943E01E82E0E943E01F82E1F3F09F0B4
S11303F0B8CF802F0E94C30085B1EA949E010E2CD1
S113040001C0220F0A94EAF72095282325B9A9CF21
S113041020910B0130910C013093890020938800C6
S11304202091090130910A0130938B0020938A00B6
S1130430209107013091080130938D0020938C00A6
S113044087CF809105019091060190938900809354
S11304508800809103019091040190938B00809314
S11304608A00209101013091020130938D00209384
S10B04708C006ECFF894FFCF5D
S113047801B80B00000000A00F580200000000B8EB
S11304880B000000000000B80BE8030000B80BD014
S113049807C8002C01D00764000000000000000019
S10504A800004E
S9030000FC
