S0120000726164696F5F6D61696E2E73726563FF
S11300000C946E000C948B000C948B000C948B005D
S11300100C948B000C948B000C948B000C948B0030
S11300200C948B000C948B000C948B000C948B0020
S11300300C948B000C948B000C948B000C948B0010
S11300400C948B000C948B000C948B000C948B0000
S11300500C948B000C948B000C948B000C948B00F0
S11300600C948B000C948B000C948B000C948B00E0
S11300700C948B000C948B000C948B000C948B00D0
S11300800C948B000C948B000C948B000C948B00C0
S11300900C948B000C948B000C948B000C948B00B0
S11300A00C948B000C948B000C948B000604450379
S11300B0450345034503ED034503D40345034503C5
S11300C0450345034503BB03A20345036B034503F3
S11300D045034503450345034503520311241FBE4D
S11300E0CFEFDAE0DEBFCDBF11E0A0E0B1E0EEE497
S11300F0F8E002C005900D92AA33B107D9F711E0D8
S1130100AAE3B1E001C01D92A134B107E1F70E9456
S11301100D030C9425040C94000084B1806E84B902
S113012080B3806F80BB0895EEE6F0E0808181604B
S1130130808385B5836085BDE0E8F0E080818A6ACC
S11301408083E1E8F0E080818961808387E893E13E
S11301509093870080938600089590E0FC01EE0F51
S1130160FF1FE80FF91FEE0FFF1FE050FF4F8481C0
S113017095819093890080938800828193819093E4
S11301808B0080938A008081918190938D0080936D
S11301908C000895289A0895299A08958091400121
S11301A008952A98682F70E027E030E080E009C0C5
S11301B02B982A9A880F1C9981602A98215031091A
S11301C058F0AB01022E02C0559547950A94E2F708
S11301D040FFEECF2B9AEDCF0895CF93DF931F927C
S11301E0CDB7DEB7299880E60E94D10080E00E9456
S11301F0D10089830E94CC0089810F90DF91CF9137
S11302000895CF93DF931F92CDB7DEB729988FEF70
S11302100E94D10089830E94CC0089810F90DF91D4
S1130220CF9108950E940101982F907381E009F005
S113023080E008950E94010185FD06C084FD02C08E
S11302408FEF089581E0089580E00895EF92FF9282
S11302500F931F93CF93DF93E42E442361F08C011B
S1130260EB01F12CF80181918F010E94D100899357
S1130270F394FE10F7CFDF91CF911F910F91FF9070
S1130280EF9008950F931F93CF93DF93062F662368
S113029041F0EC0110E089910E94D1001F5F10131E
S11302A0FACFDF91CF911F910F910895CF93DF93F0
S11302B01F92CDB7DEB729988F71806269830E943F
S11302C0D1006981862F0E94D1000F90DF91CF91D8
S11302D00C94CC00CF93DF93EC01299881E60E9423
S11302E0D10040914001BE01CE010E9426010E942E
S11302F0CC0060E487E0DF91CF910C9456012998FB
S113030082EE0E94D1000E94CC0060E787E00E9448
S1130310560128986BE080E00E9456010C94CA00B4
S113032060934001682F85E00E94560160E081E1FE
S11303300E9456016091400182E10E94560160E0F2
S113034083E10E94560160E084E10E94560160E06E
S113035085E10E94560160E086E10E94560166E054
S113036086E00E94560168E080E00E94560163E046
S113037081E00E94560163E082E00E9456016FE42E
S113038084E00E94560160E08CE10E9456010C94C6
S11303907F0160E787E00E9456016AE080E00C94E8
S11303A05601CF92DF92FF920F931F93CF93DF9367
S11303B01F92CDB7DEB7F82E289899830E94C90101
S11303C0299881EE0E94D1000E94CC00299880EAED
S11303D00E94D100109140019981112361F00F2DE9
S11303E0CF2CD92EF60181916F010E94D1008C2D62
S11303F0801B8117B8F30E94CC000F90DF91CF913E
S11304001F910F91FF90DF90CF900C94CA00289811
S113041068E080E00C9456010F931F93CF93DF9311
S11304201F92CDB7DEB78B0129988F7149830E9443
S1130430D1004981B801C8010E9426010F90DF91C3
S1130440CF911F910F910C94CC00CF93DF931F9207
S1130450CDB7DEB741E0BE016F5F7F4F87E10E94F9
S11304600C02898181700F90DF91CF910895CF9311
S1130470DF931F92CDB7DEB70E94010186FF05C04E
S113048081E00F90DF91CF91089541E0BE016F5F4D
S11304907F4F87E10E940C028981809581700F90C3
S11304A0DF91CF910895CF93DF931F92CDB7DEB73D
S11304B041E0BE016F5F7F4F88E00E940C0289819A
S11304C08F700F90DF91CF910895EF92FF920F9369
S11304D01F93CF93DF9300D0CDB7DEB7042F2998B5
S11304E08F71806269837A830E94D10069817A81E5
S11304F0002351F07B0110E0F70181917F010E94FC
S1130500D1001F5F1013F8CF0F900F90DF91CF91A0
S11305101F910F91FF90EF900C94CC00289845E028
S1130520BC018BE00E9465020C94CA00CF93DF9358
S1130530EC0145E0BC018AE00E94650245E0BE0191
S113054080E1DF91CF910C946502209A219A229A3E
S1130550239A249808950E94A50228980C94CC000C
S1130560811102C0289808950C94CA00811102C018
S1130570299808950C94CC00811102C02A980895FA
S11305802A9A0895811102C02B9808952B9A0895F0
S113059083B18071089588E48AB91092CD0083E311
S11305A08093CC001092C80088E18093C90086E053
S11305B08093CA0008959091C80095FFFCCF809362
S11305C0CE000895FC012081222351F031968091C0
S11305D0C80085FFFCCF2093CE0021912111F7CFD5
S11305E008958091C80087FFFCCF8091CE000895C4
S11305F030E02091C80027FFFCCF2091CE00FC0101
S1130600E30FF11D20833F5F2A3011F02D3089F76D
S1130610FC01E30FF11D1082089580E880936100CE
S113062081E08093610084B1806E84B980B3806F6F
S113063080BB0E9494000E94CB0280912E01909175
S11306402F01909389008093880080912C019091D0
S11306502D0190938B0080938A0080912A019091C0
S11306602B0190938D0080938C000E94AB0264E078
S113067085E10E94900185E391E00E94960280E367
S113068091E00E948E02DAEAC5E50E94F10290E050
S1130690FC01E256F109E831F105B8F7EA5AFF4FD7
S11306A00C941F0480910A0190910B01909389008E
S11306B080938800809108019091090190938B00A8
S11306C080938A00809106019091070190938D0098
S11306D080938C00DACF809104019091050190936E
S11306E08900809388008091020190910301909386
S11306F08B0080938A008091000190910101909376
S11307008D0080938C0010923C01D0933D01C093E6
S11307103E0180913A0191E0980F90933A018093C1
S11307203F018CE391E00E94D1010E9412018111EA
S1130730FCCF0E941A0180933B010E9453028093D4
S11307403B01A3CF80911C0190911D0190938900DE
S11307508093880080911A0190911B0190938B00E3
S113076080938A00809118019091190190938D00D3
S113077080938C008ACF80912801909129019093D5
S1130780890080938800809126019091270190939D
S11307908B0080938A00809124019091250190938D
S11307A08D0080938C0071CF809122019091230160
S11307B09093890080938800809120019091210179
S11307C090938B0080938A0080911E0190911F0169
S11307D090938D0080938C0058CF8091100190915C
S11307E01101909389008093880080910E0190916B
S11307F00F0190938B0080938A0080910C0190915B
S11308000D0190938D0080938C003FCF8091160151
S1130810909117019093890080938800809114012E
S11308209091150190938B0080938A00809112011E
S11308309091130190938D0080938C0026CFEE0F3E
S1110840FF1F0590F491E02D0994F894FFCF6A
S113084EB80B00000000A00F580200000000B80B07
S113085E000000000000B80BE8030000B80BD0073E
S113086EC8002C01D0076400000000000000000046
S10D087ED7D7D7D7D7E7E7E7E7E7B6
S9030000FC
