:100000000C9456000C9473000C9473000C947300C1
:100010000C9473000C9473000C9473000C94730094
:100020000C9473000C9473000C9473000C94730084
:100030000C9473000C9473000C9473000C94730074
:100040000C9473000C9473000C9473000C94730064
:100050000C9473000C9473000C9473000C94730054
:100060000C9473000C9473000C9473000C94730044
:100070000C9473000C9473000C9473000C94730034
:100080000C9473000C9473000C9473000C94730024
:100090000C9473000C9473000C9473000C94730014
:1000A0000C9473000C9473000C94730011241FBE05
:1000B000CFEFDAE0DEBFCDBF11E0A0E0B1E0E2EFCC
:1000C000F6E002C005900D92AA33B107D9F711E00E
:1000D000AAE3B1E001C01D92A134B107E1F70E948B
:1000E000F5020C9477030C94000084B1806E84B9FF
:1000F00080B3806F80BB0895EEE6F0E08081816080
:10010000808385B5836085BDE0E8F0E080818A6A00
:100110008083E1E8F0E080818961808387E893E172
:100120009093870080938600089590E0FC01EE0F85
:10013000FF1FE80FF91FEE0FFF1FE65FFE4F8481E0
:100140009581909389008093880082819381909318
:100150008B0080938A008081918190938D008093A1
:100160008C000895289A0895299A08958091400155
:1001700008952A98682F70E027E030E080E009C0F9
:100180002B982A9A880F1C9981602A98215031094E
:1001900058F0AB01022E02C0559547950A94E2F73C
:1001A00040FFEECF2B9AEDCF0895CF93DF931F92B0
:1001B000CDB7DEB7299880E60E94B90080E00E94A2
:1001C000B90089830E94B40089810F90DF91CF919B
:1001D0000895CF93DF931F92CDB7DEB729988FEFA5
:1001E0000E94B90089830E94B40089810F90DF9139
:1001F000CF9108950E94E900982F907381E009F053
:1002000080E008950E94E90085FD06C084FD02C0DB
:100210008FEF089581E0089580E00895EF92FF92B6
:100220000F931F93CF93DF93E42E442361F08C014F
:10023000EB01F12CF80181918F010E94B9008993A3
:10024000F394FE10F7CFDF91CF911F910F91FF90A4
:10025000EF9008950F931F93CF93DF93062F66239C
:1002600041F0EC0110E089910E94B9001F5F10136A
:10027000FACFDF91CF911F910F910895CF93DF9324
:100280001F92CDB7DEB729988F71806269830E9473
:10029000B9006981862F0E94B9000F90DF91CF913C
:1002A0000C94B400CF93DF93EC01299881E60E946F
:1002B000B90040914001BE01CE010E940E010E9492
:1002C000B40060E487E0DF91CF910C943E0129985F
:1002D00082EE0E94B9000E94B40060E787E00E94AD
:1002E0003E0128986BE080E00E943E010C94B20031
:1002F00060934001682F85E00E943E0160E081E14B
:100300000E943E016091400182E10E943E0160E056
:1003100083E10E943E0160E084E10E943E0160E0D2
:1003200085E10E943E0160E086E10E943E0166E0B8
:1003300086E00E943E0168E080E00E943E0163E0AA
:1003400081E00E943E0163E082E00E943E016FE492
:1003500084E00E943E0160E08CE10E943E010C942A
:10036000670160E787E00E943E016AE080E00C944C
:100370003E01CF92DF92FF920F931F93CF93DF93B3
:100380001F92CDB7DEB7F82E289899830E94B1014D
:10039000299881EE0E94B9000E94B400299880EA51
:1003A0000E94B900109140019981112361F00F2D35
:1003B000CF2CD92EF60181916F010E94B9008C2DAE
:1003C000801B8117B8F30E94B4000F90DF91CF918A
:1003D0001F910F91FF90DF90CF900C94B20028985E
:1003E00068E080E00C943E010F931F93CF93DF935E
:1003F0001F92CDB7DEB78B0129988F7149830E9478
:10040000B9004981B801C8010E940E010F90DF9127
:10041000CF911F910F910C94B400CF93DF931F9253
:10042000CDB7DEB741E0BE016F5F7F4F87E10E942D
:10043000F401898181700F90DF91CF910895CF935E
:10044000DF931F92CDB7DEB70E94E90086FF05C09B
:1004500081E00F90DF91CF91089541E0BE016F5F81
:100460007F4F87E10E94F4018981809581700F9010
:10047000DF91CF910895CF93DF931F92CDB7DEB771
:1004800041E0BE016F5F7F4F88E00E94F4018981E7
:100490008F700F90DF91CF910895EF92FF920F939D
:1004A0001F93CF93DF9300D0CDB7DEB7042F2998E9
:1004B0008F71806269837A830E94B90069817A8131
:1004C000002351F07B0110E0F70181917F010E9430
:1004D000B9001F5F1013F8CF0F900F90DF91CF91ED
:1004E0001F910F91FF90EF900C94B400289845E075
:1004F000BC018BE00E944D020C94B200CF93DF93BD
:10050000EC0145E0BC018AE00E944D0245E0BE01DD
:1005100080E1DF91CF910C944D02209A219A229A8A
:10052000239A249808950E948D0228980C94B40070
:10053000811102C0289808950C94B200811102C064
:10054000299808950C94B400811102C02A98089546
:100550002A9A0895811102C02B9808952B9A089524
:1005600083B18071089588E48AB91092CD0083E345
:100570008093CC001092C80088E18093C90086E087
:100580008093CA0008959091C80095FFFCCF809396
:10059000CE000895FC012081222351F031968091F4
:1005A000C80085FFFCCF2093CE0021912111F7CF09
:1005B00008958091C80087FFFCCF8091CE000895F8
:1005C00030E02091C80027FFFCCF2091CE00FC0135
:1005D000E30FF11D20833F5F2A3011F02D3089F7A2
:1005E000FC01E30FF11D1082089580E88093610003
:1005F00081E08093610084B1806E84B980B3806FA4
:1006000080BB0E947C000E94B302809138019091CF
:1006100039019093890080938800809136019091F0
:10062000370190938B0080938A00809134019091E0
:10063000350190938D0080938C000E94930264E0BA
:1006400085E10E94780185E091E00E947E0280E0D1
:1006500091E00E9476020E94D902C82F8F3FD9F7FD
:100660000E94D902182F0E94D902D82F0E94D902C5
:10067000C0933C0110933D01D0933E0180933F0114
:100680008CE391E00E94B9010E94FA008111FCCF35
:100690000E94020180933B018823E1F0813019F12F
:1006A0008EE40E94C3020E943B0280933B010E94A1
:1006B000C3020E9467010E941F0281110FC0809136
:1006C0003F010E94C30287EA91E60197F1F700C05B
:1006D0000000C1CF8FE40E94C302E5CF8CE391E01C
:1006E0000E945201ECCF8CE40E94C302DCCFF8944C
:0206F000FFCF3A
:1006F200D7D7D7D7D7E7E7E7E7E7B80B000000007F
:10070200A00F580200000000B80B0000000000001B
:10071200B80BE8030000B80BD007C8002C01D007C3
:0A0722006400000000000000000069
:00000001FF
